{
  "_format": "hh-sol-artifact-1",
  "contractName": "Wallet",
  "sourceName": "contracts/Wallet.sol",
  "abi": [
    {
      "inputs": [],
      "stateMutability": "nonpayable",
      "type": "constructor"
    },
    {
      "stateMutability": "payable",
      "type": "fallback"
    },
    {
      "inputs": [],
      "name": "getBalance",
      "outputs": [
        {
          "internalType": "uint256",
          "name": "",
          "type": "uint256"
        }
      ],
      "stateMutability": "view",
      "type": "function"
    },
    {
      "inputs": [],
      "name": "getName",
      "outputs": [
        {
          "internalType": "string",
          "name": "",
          "type": "string"
        }
      ],
      "stateMutability": "view",
      "type": "function"
    },
    {
      "inputs": [],
      "name": "sendEth",
      "outputs": [],
      "stateMutability": "payable",
      "type": "function"
    },
    {
      "inputs": [
        {
          "internalType": "string",
          "name": "_name",
          "type": "string"
        }
      ],
      "name": "setName",
      "outputs": [],
      "stateMutability": "nonpayable",
      "type": "function"
    },
    {
      "inputs": [],
      "name": "withdrawAll",
      "outputs": [],
      "stateMutability": "nonpayable",
      "type": "function"
    },
    {
      "inputs": [],
      "name": "withdrawAllAdmin",
      "outputs": [],
      "stateMutability": "nonpayable",
      "type": "function"
    },
    {
      "stateMutability": "payable",
      "type": "receive"
    }
  ],
  "bytecode": "0x608060405234801561001057600080fd5b50336000806101000a81548173ffffffffffffffffffffffffffffffffffffffff021916908373ffffffffffffffffffffffffffffffffffffffff160217905550610cf7806100606000396000f3fe6080604052600436106100595760003560e01c806306e99fef1461006257806312065fe01461006c57806317d7de7c14610097578063853828b6146100c257806392408178146100d9578063c47f0027146100f057610060565b3661006057005b005b61006a610119565b005b34801561007857600080fd5b5061008161018d565b60405161008e9190610583565b60405180910390f35b3480156100a357600080fd5b506100ac6101d7565b6040516100b9919061062e565b60405180910390f35b3480156100ce57600080fd5b506100d76102a9565b005b3480156100e557600080fd5b506100ee610421565b005b3480156100fc57600080fd5b5061011760048036038101906101129190610799565b610517565b005b34600260003373ffffffffffffffffffffffffffffffffffffffff1673ffffffffffffffffffffffffffffffffffffffff168152602001908152602001600020600101600082825461016b9190610811565b9250508190555034600160008282546101849190610811565b92505081905550565b6000600260003373ffffffffffffffffffffffffffffffffffffffff1673ffffffffffffffffffffffffffffffffffffffff16815260200190815260200160002060010154905090565b6060600260003373ffffffffffffffffffffffffffffffffffffffff1673ffffffffffffffffffffffffffffffffffffffff168152602001908152602001600020600001805461022690610874565b80601f016020809104026020016040519081016040528092919081815260200182805461025290610874565b801561029f5780601f106102745761010080835404028352916020019161029f565b820191906000526020600020905b81548152906001019060200180831161028257829003601f168201915b5050505050905090565b6000600260003373ffffffffffffffffffffffffffffffffffffffff1673ffffffffffffffffffffffffffffffffffffffff16815260200190815260200160002060010154905060008103610333576040517f08c379a000000000000000000000000000000000000000000000000000000000815260040161032a906108f1565b60405180910390fd5b47811115610376576040517f08c379a000000000000000000000000000000000000000000000000000000000815260040161036d90610983565b60405180910390fd5b3373ffffffffffffffffffffffffffffffffffffffff166108fc829081150290604051600060405180830381858888f193505050501580156103bc573d6000803e3d6000fd5b5080600160008282546103cf91906109a3565b925050819055506000600260003373ffffffffffffffffffffffffffffffffffffffff1673ffffffffffffffffffffffffffffffffffffffff1681526020019081526020016000206001018190555050565b60008054906101000a900473ffffffffffffffffffffffffffffffffffffffff1673ffffffffffffffffffffffffffffffffffffffff163373ffffffffffffffffffffffffffffffffffffffff16146104af576040517f08c379a00000000000000000000000000000000000000000000000000000000081526004016104a690610a23565b60405180910390fd5b600047905080600160008282546104c691906109a3565b925050819055503373ffffffffffffffffffffffffffffffffffffffff166108fc829081150290604051600060405180830381858888f19350505050158015610513573d6000803e3d6000fd5b5050565b80600260003373ffffffffffffffffffffffffffffffffffffffff1673ffffffffffffffffffffffffffffffffffffffff16815260200190815260200160002060000190816105669190610bef565b5050565b6000819050919050565b61057d8161056a565b82525050565b60006020820190506105986000830184610574565b92915050565b600081519050919050565b600082825260208201905092915050565b60005b838110156105d85780820151818401526020810190506105bd565b60008484015250505050565b6000601f19601f8301169050919050565b60006106008261059e565b61060a81856105a9565b935061061a8185602086016105ba565b610623816105e4565b840191505092915050565b6000602082019050818103600083015261064881846105f5565b905092915050565b6000604051905090565b600080fd5b600080fd5b600080fd5b600080fd5b7f4e487b7100000000000000000000000000000000000000000000000000000000600052604160045260246000fd5b6106a6826105e4565b810181811067ffffffffffffffff821117156106c5576106c461066e565b5b80604052505050565b60006106d8610650565b90506106e4828261069d565b919050565b600067ffffffffffffffff8211156107045761070361066e565b5b61070d826105e4565b9050602081019050919050565b82818337600083830152505050565b600061073c610737846106e9565b6106ce565b90508281526020810184848401111561075857610757610669565b5b61076384828561071a565b509392505050565b600082601f8301126107805761077f610664565b5b8135610790848260208601610729565b91505092915050565b6000602082840312156107af576107ae61065a565b5b600082013567ffffffffffffffff8111156107cd576107cc61065f565b5b6107d98482850161076b565b91505092915050565b7f4e487b7100000000000000000000000000000000000000000000000000000000600052601160045260246000fd5b600061081c8261056a565b91506108278361056a565b925082820190508082111561083f5761083e6107e2565b5b92915050565b7f4e487b7100000000000000000000000000000000000000000000000000000000600052602260045260246000fd5b6000600282049050600182168061088c57607f821691505b60208210810361089f5761089e610845565b5b50919050565b7f566f7472652062616c616e636520657374206e756c6c65202100000000000000600082015250565b60006108db6019836105a9565b91506108e6826108a5565b602082019050919050565b6000602082019050818103600083015261090a816108ce565b9050919050565b7f766f74726520736f6c646520657374207375706572696575722061206c61207160008201527f75616e74697465206427657468657220646973706f6e69626c65000000000000602082015250565b600061096d603a836105a9565b915061097882610911565b604082019050919050565b6000602082019050818103600083015261099c81610960565b9050919050565b60006109ae8261056a565b91506109b98361056a565b92508282039050818111156109d1576109d06107e2565b5b92915050565b7f6e6f7420746865206f776e657200000000000000000000000000000000000000600082015250565b6000610a0d600d836105a9565b9150610a18826109d7565b602082019050919050565b60006020820190508181036000830152610a3c81610a00565b9050919050565b60008190508160005260206000209050919050565b60006020601f8301049050919050565b600082821b905092915050565b600060088302610aa57fffffffffffffffffffffffffffffffffffffffffffffffffffffffffffffffff82610a68565b610aaf8683610a68565b95508019841693508086168417925050509392505050565b6000819050919050565b6000610aec610ae7610ae28461056a565b610ac7565b61056a565b9050919050565b6000819050919050565b610b0683610ad1565b610b1a610b1282610af3565b848454610a75565b825550505050565b600090565b610b2f610b22565b610b3a818484610afd565b505050565b5b81811015610b5e57610b53600082610b27565b600181019050610b40565b5050565b601f821115610ba357610b7481610a43565b610b7d84610a58565b81016020851015610b8c578190505b610ba0610b9885610a58565b830182610b3f565b50505b505050565b600082821c905092915050565b6000610bc660001984600802610ba8565b1980831691505092915050565b6000610bdf8383610bb5565b9150826002028217905092915050565b610bf88261059e565b67ffffffffffffffff811115610c1157610c1061066e565b5b610c1b8254610874565b610c26828285610b62565b600060209050601f831160018114610c595760008415610c47578287015190505b610c518582610bd3565b865550610cb9565b601f198416610c6786610a43565b60005b82811015610c8f57848901518255600182019150602085019450602081019050610c6a565b86831015610cac5784890151610ca8601f891682610bb5565b8355505b6001600288020188555050505b50505050505056fea26469706673582212200a9e43a64411b609065919a7ef874d6e514d940ab5303599127800a43bf9451464736f6c63430008130033",
  "linkReferences": {},
  "deployedLinkReferences": {}
}